:100000000C9446000C9465000C9465000C946500FB
:100010000C9465000C9465000C9465000C946500CC
:100020000C9465000C9465000C9465000C946500BC
:100030000C9465000C9465000C9465000C946500AC
:100040000C9465000C9465000C9465000C9465009C
:100050000C9465000C9465000C9465000C9465008C
:100060000C9465000C9465000C9465000C9465007C
:100070000C9465000C9465000C9465000C9465006C
:100080000C9465000C9465000C94650011241FBE4F
:10009000CFEFD0E4DEBFCDBF11E0A0E0B1E0E4EBF4
:1000A000F2E000E00BBF02C007900D92AE30B10746
:1000B000D9F711E0AEE0B1E001C01D92A031B10767
:1000C000E1F70E9437010C9458010C940000CF9383
:1000D000DF9300D01F92CDB7DEB789837B836A831D
:1000E00089818A3031F48A819B81BC018DE00E9434
:1000F000670080EC90E0FC018081882F90E08072A6
:1001000099270097B1F386EC90E02981FC012083C8
:1001100080E090E00F900F900F90DF91CF910895C5
:10012000CF93DF93CDB7DEB780910E0190910F0191
:100130008230910561F18330910530F4009761F0D0
:100140008130910581F05EC083309105A1F184304A
:10015000910509F444C056C081E090E090930F01EE
:1001600080930E0154C080E290E0FC0180818130D8
:1001700039F484E090E090930F0180930E0147C022
:1001800081E090E090930F0180930E0140C080E2E7
:1001900090E0FC018081813039F482E090E090931E
:1001A0000F0180930E0133C081E090E090930F0126
:1001B00080930E012CC080E290E0FC0180818130B0
:1001C00039F482E090E090930F0180930E011FC0FC
:1001D00083E090E090930F0180930E0118C080E2BD
:1001E00090E0FC018081813039F484E090E09093CC
:1001F0000F0180930E0106C083E090E090930F0101
:1002000080930E0110920F0110920E010000809158
:100210000E0190910F0182309105A1F0833091057C
:1002200020F48130910541F01FC08330910581F0A9
:100230008430910599F018C085E290E021E0FC013E
:10024000208312C085E290E021E0FC0120830CC0F5
:1002500085E290E022E0FC01208306C085E290E088
:1002600022E0FC0120830000DF91CF910895CF931D
:10027000DF93CDB7DEB781E290E0FC01108280E22F
:1002800090E02FEFFC01208384E290E02FEFFC014F
:10029000208383E290E0FC01108285E290E0FC0183
:1002A000108210920F0110920E010E949000FDCF5B
:0402B000F894FFCFF0
:0E02B4000000000200000000670000000000D3
:00000001FF
